{
  "contractName": "CampaignFactory",
  "abi": [
    {
      "constant": true,
      "inputs": [
        {
          "name": "",
          "type": "uint256"
        }
      ],
      "name": "campaigns",
      "outputs": [
        {
          "name": "",
          "type": "address"
        }
      ],
      "payable": false,
      "stateMutability": "view",
      "type": "function"
    },
    {
      "payable": true,
      "stateMutability": "payable",
      "type": "fallback"
    },
    {
      "constant": false,
      "inputs": [
        {
          "name": "_fundCall",
          "type": "uint256"
        },
        {
          "name": "_timeLock",
          "type": "uint256"
        },
        {
          "name": "_minimumContribution",
          "type": "uint256"
        }
      ],
      "name": "createCampaign",
      "outputs": [
        {
          "name": "",
          "type": "address"
        }
      ],
      "payable": false,
      "stateMutability": "nonpayable",
      "type": "function"
    },
    {
      "constant": true,
      "inputs": [],
      "name": "getAllCampaigns",
      "outputs": [
        {
          "name": "",
          "type": "address[]"
        }
      ],
      "payable": false,
      "stateMutability": "view",
      "type": "function"
    },
    {
      "constant": true,
      "inputs": [
        {
          "name": "_campaignAddress",
          "type": "address"
        }
      ],
      "name": "checkCampaign",
      "outputs": [
        {
          "name": "",
          "type": "bool"
        }
      ],
      "payable": false,
      "stateMutability": "view",
      "type": "function"
    },
    {
      "constant": true,
      "inputs": [
        {
          "name": "_owner",
          "type": "address"
        }
      ],
      "name": "getMyCampaigns",
      "outputs": [
        {
          "name": "",
          "type": "address[]"
        }
      ],
      "payable": false,
      "stateMutability": "view",
      "type": "function"
    }
  ],
  "bytecode": "0x608060405234801561001057600080fd5b50611288806100206000396000f3fe60806040526004361061004a5760003560e01c8063141961bc1461004c57806364c90966146100c75780636693b8b41461016d57806386cdf604146101d6578063f69d315814610242575b005b34801561005857600080fd5b506100856004803603602081101561006f57600080fd5b81019080803590602001909291905050506102d1565b604051808273ffffffffffffffffffffffffffffffffffffffff1673ffffffffffffffffffffffffffffffffffffffff16815260200191505060405180910390f35b3480156100d357600080fd5b50610116600480360360208110156100ea57600080fd5b81019080803573ffffffffffffffffffffffffffffffffffffffff16906020019092919050505061030f565b6040518080602001828103825283818151815260200191508051906020019060200280838360005b8381101561015957808201518184015260208101905061013e565b505050509050019250505060405180910390f35b34801561017957600080fd5b506101bc6004803603602081101561019057600080fd5b81019080803573ffffffffffffffffffffffffffffffffffffffff1690602001909291905050506103dc565b604051808215151515815260200191505060405180910390f35b3480156101e257600080fd5b506101eb610432565b6040518080602001828103825283818151815260200191508051906020019060200280838360005b8381101561022e578082015181840152602081019050610213565b505050509050019250505060405180910390f35b34801561024e57600080fd5b5061028f6004803603606081101561026557600080fd5b810190808035906020019092919080359060200190929190803590602001909291905050506104c0565b604051808273ffffffffffffffffffffffffffffffffffffffff1673ffffffffffffffffffffffffffffffffffffffff16815260200191505060405180910390f35b6000818154811015156102e057fe5b906000526020600020016000915054906101000a900473ffffffffffffffffffffffffffffffffffffffff1681565b6060600260008373ffffffffffffffffffffffffffffffffffffffff1673ffffffffffffffffffffffffffffffffffffffff1681526020019081526020016000208054806020026020016040519081016040528092919081815260200182805480156103d057602002820191906000526020600020905b8160009054906101000a900473ffffffffffffffffffffffffffffffffffffffff1673ffffffffffffffffffffffffffffffffffffffff1681526020019060010190808311610386575b50505050509050919050565b6000600160008373ffffffffffffffffffffffffffffffffffffffff1673ffffffffffffffffffffffffffffffffffffffff16815260200190815260200160002060009054906101000a900460ff169050919050565b606060008054806020026020016040519081016040528092919081815260200182805480156104b657602002820191906000526020600020905b8160009054906101000a900473ffffffffffffffffffffffffffffffffffffffff1673ffffffffffffffffffffffffffffffffffffffff168152602001906001019080831161046c575b5050505050905090565b600080338585856040516104d390610651565b808573ffffffffffffffffffffffffffffffffffffffff1673ffffffffffffffffffffffffffffffffffffffff168152602001848152602001838152602001828152602001945050505050604051809103906000f08015801561053a573d6000803e3d6000fd5b50905060008190806001815401808255809150509060018203906000526020600020016000909192909190916101000a81548173ffffffffffffffffffffffffffffffffffffffff021916908373ffffffffffffffffffffffffffffffffffffffff16021790555050600260003373ffffffffffffffffffffffffffffffffffffffff1673ffffffffffffffffffffffffffffffffffffffff1681526020019081526020016000208190806001815401808255809150509060018203906000526020600020016000909192909190916101000a81548173ffffffffffffffffffffffffffffffffffffffff021916908373ffffffffffffffffffffffffffffffffffffffff16021790555050809150509392505050565b610bfe8061065f8339019056fe60806040526000600660006101000a81548160ff02191690831515021790555034801561002b57600080fd5b50604051608080610bfe8339810180604052608081101561004b57600080fd5b81019080805190602001909291908051906020019092919080519060200190929190805190602001909291905050506000831415801561008c575060008214155b8015610099575060008114155b15156100a457600080fd5b836000806101000a81548173ffffffffffffffffffffffffffffffffffffffff021916908373ffffffffffffffffffffffffffffffffffffffff16021790555060018302600181905550600182024201600381905550806007819055507fdf6d996d4ec7cc238b106960e6b11a8ebec6f3981e4f57ddade7529c7b7e86a1848484604051808473ffffffffffffffffffffffffffffffffffffffff1673ffffffffffffffffffffffffffffffffffffffff168152602001838152602001828152602001935050505060405180910390a150505050610a77806101876000396000f3fe6080604052600436106100c25760003560e01c8063590e1ae31161007f578063ce845d1d11610059578063ce845d1d1461031d578063d085835a14610348578063d7bb99ba14610373578063fb704f721461037d576100c2565b8063590e1ae3146102845780638da5cb5b1461029b578063937e09b1146102f2576100c2565b80633994a268146100c75780633cb5d100146100f25780633ccfd60b1461016d57806342e94c901461018457806351f890ea146101e9578063522e117714610255575b600080fd5b3480156100d357600080fd5b506100dc6103a8565b6040518082815260200191505060405180910390f35b3480156100fe57600080fd5b5061012b6004803603602081101561011557600080fd5b81019080803590602001909291905050506103ae565b604051808273ffffffffffffffffffffffffffffffffffffffff1673ffffffffffffffffffffffffffffffffffffffff16815260200191505060405180910390f35b34801561017957600080fd5b506101826103ec565b005b34801561019057600080fd5b506101d3600480360360208110156101a757600080fd5b81019080803573ffffffffffffffffffffffffffffffffffffffff16906020019092919050505061057f565b6040518082815260200191505060405180910390f35b3480156101f557600080fd5b506101fe610597565b6040518080602001828103825283818151815260200191508051906020019060200280838360005b83811015610241578082015181840152602081019050610226565b505050509050019250505060405180910390f35b34801561026157600080fd5b5061026a610625565b604051808215151515815260200191505060405180910390f35b34801561029057600080fd5b50610299610638565b005b3480156102a757600080fd5b506102b0610820565b604051808273ffffffffffffffffffffffffffffffffffffffff1673ffffffffffffffffffffffffffffffffffffffff16815260200191505060405180910390f35b3480156102fe57600080fd5b50610307610845565b6040518082815260200191505060405180910390f35b34801561032957600080fd5b5061033261084b565b6040518082815260200191505060405180910390f35b34801561035457600080fd5b5061035d61086a565b6040518082815260200191505060405180910390f35b61037b610870565b005b34801561038957600080fd5b506103926109b0565b6040518082815260200191505060405180910390f35b60025481565b6004818154811015156103bd57fe5b906000526020600020016000915054906101000a900473ffffffffffffffffffffffffffffffffffffffff1681565b6000809054906101000a900473ffffffffffffffffffffffffffffffffffffffff1673ffffffffffffffffffffffffffffffffffffffff163373ffffffffffffffffffffffffffffffffffffffff161415156104b0576040517f08c379a00000000000000000000000000000000000000000000000000000000081526004018080602001828103825260118152602001807f4f6e6c79206f776e65722063616e20646f00000000000000000000000000000081525060200191505060405180910390fd5b600660009054906101000a900460ff161515610534576040517f08c379a00000000000000000000000000000000000000000000000000000000081526004018080602001828103825260148152602001807f4d75737420656e6f7567682066756e6443616c6c00000000000000000000000081525060200191505060405180910390fd5b3373ffffffffffffffffffffffffffffffffffffffff166108fc6002549081150290604051600060405180830381858888f1935050505015801561057c573d6000803e3d6000fd5b50565b60056020528060005260406000206000915090505481565b6060600480548060200260200160405190810160405280929190818152602001828054801561061b57602002820191906000526020600020905b8160009054906101000a900473ffffffffffffffffffffffffffffffffffffffff1673ffffffffffffffffffffffffffffffffffffffff16815260200190600101908083116105d1575b5050505050905090565b600660009054906101000a900460ff1681565b600354421015801561066257506001543073ffffffffffffffffffffffffffffffffffffffff1631105b15156106d6576040517f08c379a000000000000000000000000000000000000000000000000000000000815260040180806020018281038252600c8152602001807f4e6f7420656c696769626c65000000000000000000000000000000000000000081525060200191505060405180910390fd5b6106df336109b6565b1515610753576040517f08c379a000000000000000000000000000000000000000000000000000000000815260040180806020018281038252601c8152602001807f596f752068617665206e6f7420636f6e7472696275746564207965740000000081525060200191505060405180910390fd5b3373ffffffffffffffffffffffffffffffffffffffff166108fc600560003373ffffffffffffffffffffffffffffffffffffffff1673ffffffffffffffffffffffffffffffffffffffff168152602001908152602001600020549081150290604051600060405180830381858888f193505050501580156107d8573d6000803e3d6000fd5b506000600560003373ffffffffffffffffffffffffffffffffffffffff1673ffffffffffffffffffffffffffffffffffffffff16815260200190815260200160002081905550565b6000809054906101000a900473ffffffffffffffffffffffffffffffffffffffff1681565b60075481565b60003073ffffffffffffffffffffffffffffffffffffffff1631905090565b60035481565b60003411151561087f57600080fd5b6003544210151561088f57600080fd5b610898336109b6565b15156109055760043390806001815401808255809150509060018203906000526020600020016000909192909190916101000a81548173ffffffffffffffffffffffffffffffffffffffff021916908373ffffffffffffffffffffffffffffffffffffffff160217905550505b34600560003373ffffffffffffffffffffffffffffffffffffffff1673ffffffffffffffffffffffffffffffffffffffff168152602001908152602001600020600082825401925050819055506001543073ffffffffffffffffffffffffffffffffffffffff16311015156109ae576001600660006101000a81548160ff0219169083151502179055503073ffffffffffffffffffffffffffffffffffffffff16316002819055505b565b60015481565b60008073ffffffffffffffffffffffffffffffffffffffff168273ffffffffffffffffffffffffffffffffffffffff1614158015610a3357506000600560008473ffffffffffffffffffffffffffffffffffffffff1673ffffffffffffffffffffffffffffffffffffffff16815260200190815260200160002054115b15610a415760019050610a46565b600090505b91905056fea165627a7a723058203a47db9034659cc0f77a81bc365965ff3b5d45d645b6c530dc134ad469a8dd1b0029a165627a7a72305820467a1a9d9033467a0ed71425f600cb1360b04b0d289cf48d526fc3015675b8950029",
  "source": "pragma solidity ^0.5.5;\nimport \"./Campaign.sol\";\n\ncontract CampaignFactory {\n    address[] public campaigns;\n    mapping(address => bool) verifyCampaigns;\n    mapping(address => address[]) ownerCampaigns;\n\n    function createCampaign(\n        uint256 _fundCall,\n        uint256 _timeLock,\n        uint256 _minimumContribution\n    ) public returns (address) {\n        address campaign = address(\n            new Campaign(msg.sender, _fundCall, _timeLock, _minimumContribution)\n        );\n        campaigns.push(campaign);\n        ownerCampaigns[msg.sender].push(campaign);\n        return campaign;\n    }\n\n    function getAllCampaigns() public view returns (address[] memory) {\n        return campaigns;\n    }\n\n    function checkCampaign(address _campaignAddress)\n        public\n        view\n        returns (bool)\n    {\n        return verifyCampaigns[_campaignAddress];\n    }\n\n    function getMyCampaigns(address _owner)\n        public\n        view\n        returns (address[] memory)\n    {\n        return ownerCampaigns[_owner];\n    }\n\n    function() external payable {}\n}\n",
  "sourcePath": "/Users/chientm/Workspace/blockchain/Harmony/danh/contracts/CampaignFactory.sol",
  "compiler": {
    "name": "solc",
    "version": "0.5.5+commit.47a71e8f.Emscripten.clang"
  },
  "schemaVersion": "3.2.5",
  "updatedAt": "2020-09-26T23:06:05.822Z",
  "networkType": "ethereum",
  "devdoc": {
    "methods": {}
  },
  "userdoc": {
    "methods": {}
  }
}