{
  "contractName": "Campaign",
  "abi": [
    {
      "constant": true,
      "inputs": [],
      "name": "remainingFund",
      "outputs": [
        {
          "name": "",
          "type": "uint256"
        }
      ],
      "payable": false,
      "stateMutability": "view",
      "type": "function"
    },
    {
      "constant": true,
      "inputs": [
        {
          "name": "",
          "type": "uint256"
        }
      ],
      "name": "contributors",
      "outputs": [
        {
          "name": "",
          "type": "address"
        }
      ],
      "payable": false,
      "stateMutability": "view",
      "type": "function"
    },
    {
      "constant": true,
      "inputs": [
        {
          "name": "",
          "type": "address"
        }
      ],
      "name": "contributions",
      "outputs": [
        {
          "name": "",
          "type": "uint256"
        }
      ],
      "payable": false,
      "stateMutability": "view",
      "type": "function"
    },
    {
      "constant": true,
      "inputs": [],
      "name": "complete",
      "outputs": [
        {
          "name": "",
          "type": "bool"
        }
      ],
      "payable": false,
      "stateMutability": "view",
      "type": "function"
    },
    {
      "constant": true,
      "inputs": [],
      "name": "owner",
      "outputs": [
        {
          "name": "",
          "type": "address"
        }
      ],
      "payable": false,
      "stateMutability": "view",
      "type": "function"
    },
    {
      "constant": true,
      "inputs": [],
      "name": "minimumContribution",
      "outputs": [
        {
          "name": "",
          "type": "uint256"
        }
      ],
      "payable": false,
      "stateMutability": "view",
      "type": "function"
    },
    {
      "constant": true,
      "inputs": [],
      "name": "timeLock",
      "outputs": [
        {
          "name": "",
          "type": "uint256"
        }
      ],
      "payable": false,
      "stateMutability": "view",
      "type": "function"
    },
    {
      "constant": true,
      "inputs": [],
      "name": "fundCall",
      "outputs": [
        {
          "name": "",
          "type": "uint256"
        }
      ],
      "payable": false,
      "stateMutability": "view",
      "type": "function"
    },
    {
      "inputs": [
        {
          "name": "_owner",
          "type": "address"
        },
        {
          "name": "_fundCall",
          "type": "uint256"
        },
        {
          "name": "_timeLock",
          "type": "uint256"
        },
        {
          "name": "_minimumContribution",
          "type": "uint256"
        }
      ],
      "payable": false,
      "stateMutability": "nonpayable",
      "type": "constructor"
    },
    {
      "anonymous": false,
      "inputs": [
        {
          "indexed": false,
          "name": "owner",
          "type": "address"
        },
        {
          "indexed": false,
          "name": "fundCall",
          "type": "uint256"
        },
        {
          "indexed": false,
          "name": "timeLock",
          "type": "uint256"
        }
      ],
      "name": "NewCampaign",
      "type": "event"
    },
    {
      "constant": false,
      "inputs": [],
      "name": "contribute",
      "outputs": [],
      "payable": true,
      "stateMutability": "payable",
      "type": "function"
    },
    {
      "constant": true,
      "inputs": [],
      "name": "getAllContributors",
      "outputs": [
        {
          "name": "",
          "type": "address[]"
        }
      ],
      "payable": false,
      "stateMutability": "view",
      "type": "function"
    },
    {
      "constant": true,
      "inputs": [],
      "name": "currentBalance",
      "outputs": [
        {
          "name": "",
          "type": "uint256"
        }
      ],
      "payable": false,
      "stateMutability": "view",
      "type": "function"
    },
    {
      "constant": false,
      "inputs": [],
      "name": "refund",
      "outputs": [],
      "payable": false,
      "stateMutability": "nonpayable",
      "type": "function"
    },
    {
      "constant": false,
      "inputs": [],
      "name": "withdraw",
      "outputs": [],
      "payable": false,
      "stateMutability": "nonpayable",
      "type": "function"
    }
  ],
  "bytecode": "0x60806040526000600660006101000a81548160ff02191690831515021790555034801561002b57600080fd5b50604051608080610bfe8339810180604052608081101561004b57600080fd5b81019080805190602001909291908051906020019092919080519060200190929190805190602001909291905050506000831415801561008c575060008214155b8015610099575060008114155b15156100a457600080fd5b836000806101000a81548173ffffffffffffffffffffffffffffffffffffffff021916908373ffffffffffffffffffffffffffffffffffffffff16021790555060018302600181905550600182024201600381905550806007819055507fdf6d996d4ec7cc238b106960e6b11a8ebec6f3981e4f57ddade7529c7b7e86a1848484604051808473ffffffffffffffffffffffffffffffffffffffff1673ffffffffffffffffffffffffffffffffffffffff168152602001838152602001828152602001935050505060405180910390a150505050610a77806101876000396000f3fe6080604052600436106100c25760003560e01c8063590e1ae31161007f578063ce845d1d11610059578063ce845d1d1461031d578063d085835a14610348578063d7bb99ba14610373578063fb704f721461037d576100c2565b8063590e1ae3146102845780638da5cb5b1461029b578063937e09b1146102f2576100c2565b80633994a268146100c75780633cb5d100146100f25780633ccfd60b1461016d57806342e94c901461018457806351f890ea146101e9578063522e117714610255575b600080fd5b3480156100d357600080fd5b506100dc6103a8565b6040518082815260200191505060405180910390f35b3480156100fe57600080fd5b5061012b6004803603602081101561011557600080fd5b81019080803590602001909291905050506103ae565b604051808273ffffffffffffffffffffffffffffffffffffffff1673ffffffffffffffffffffffffffffffffffffffff16815260200191505060405180910390f35b34801561017957600080fd5b506101826103ec565b005b34801561019057600080fd5b506101d3600480360360208110156101a757600080fd5b81019080803573ffffffffffffffffffffffffffffffffffffffff16906020019092919050505061057f565b6040518082815260200191505060405180910390f35b3480156101f557600080fd5b506101fe610597565b6040518080602001828103825283818151815260200191508051906020019060200280838360005b83811015610241578082015181840152602081019050610226565b505050509050019250505060405180910390f35b34801561026157600080fd5b5061026a610625565b604051808215151515815260200191505060405180910390f35b34801561029057600080fd5b50610299610638565b005b3480156102a757600080fd5b506102b0610820565b604051808273ffffffffffffffffffffffffffffffffffffffff1673ffffffffffffffffffffffffffffffffffffffff16815260200191505060405180910390f35b3480156102fe57600080fd5b50610307610845565b6040518082815260200191505060405180910390f35b34801561032957600080fd5b5061033261084b565b6040518082815260200191505060405180910390f35b34801561035457600080fd5b5061035d61086a565b6040518082815260200191505060405180910390f35b61037b610870565b005b34801561038957600080fd5b506103926109b0565b6040518082815260200191505060405180910390f35b60025481565b6004818154811015156103bd57fe5b906000526020600020016000915054906101000a900473ffffffffffffffffffffffffffffffffffffffff1681565b6000809054906101000a900473ffffffffffffffffffffffffffffffffffffffff1673ffffffffffffffffffffffffffffffffffffffff163373ffffffffffffffffffffffffffffffffffffffff161415156104b0576040517f08c379a00000000000000000000000000000000000000000000000000000000081526004018080602001828103825260118152602001807f4f6e6c79206f776e65722063616e20646f00000000000000000000000000000081525060200191505060405180910390fd5b600660009054906101000a900460ff161515610534576040517f08c379a00000000000000000000000000000000000000000000000000000000081526004018080602001828103825260148152602001807f4d75737420656e6f7567682066756e6443616c6c00000000000000000000000081525060200191505060405180910390fd5b3373ffffffffffffffffffffffffffffffffffffffff166108fc6002549081150290604051600060405180830381858888f1935050505015801561057c573d6000803e3d6000fd5b50565b60056020528060005260406000206000915090505481565b6060600480548060200260200160405190810160405280929190818152602001828054801561061b57602002820191906000526020600020905b8160009054906101000a900473ffffffffffffffffffffffffffffffffffffffff1673ffffffffffffffffffffffffffffffffffffffff16815260200190600101908083116105d1575b5050505050905090565b600660009054906101000a900460ff1681565b600354421015801561066257506001543073ffffffffffffffffffffffffffffffffffffffff1631105b15156106d6576040517f08c379a000000000000000000000000000000000000000000000000000000000815260040180806020018281038252600c8152602001807f4e6f7420656c696769626c65000000000000000000000000000000000000000081525060200191505060405180910390fd5b6106df336109b6565b1515610753576040517f08c379a000000000000000000000000000000000000000000000000000000000815260040180806020018281038252601c8152602001807f596f752068617665206e6f7420636f6e7472696275746564207965740000000081525060200191505060405180910390fd5b3373ffffffffffffffffffffffffffffffffffffffff166108fc600560003373ffffffffffffffffffffffffffffffffffffffff1673ffffffffffffffffffffffffffffffffffffffff168152602001908152602001600020549081150290604051600060405180830381858888f193505050501580156107d8573d6000803e3d6000fd5b506000600560003373ffffffffffffffffffffffffffffffffffffffff1673ffffffffffffffffffffffffffffffffffffffff16815260200190815260200160002081905550565b6000809054906101000a900473ffffffffffffffffffffffffffffffffffffffff1681565b60075481565b60003073ffffffffffffffffffffffffffffffffffffffff1631905090565b60035481565b60003411151561087f57600080fd5b6003544210151561088f57600080fd5b610898336109b6565b15156109055760043390806001815401808255809150509060018203906000526020600020016000909192909190916101000a81548173ffffffffffffffffffffffffffffffffffffffff021916908373ffffffffffffffffffffffffffffffffffffffff160217905550505b34600560003373ffffffffffffffffffffffffffffffffffffffff1673ffffffffffffffffffffffffffffffffffffffff168152602001908152602001600020600082825401925050819055506001543073ffffffffffffffffffffffffffffffffffffffff16311015156109ae576001600660006101000a81548160ff0219169083151502179055503073ffffffffffffffffffffffffffffffffffffffff16316002819055505b565b60015481565b60008073ffffffffffffffffffffffffffffffffffffffff168273ffffffffffffffffffffffffffffffffffffffff1614158015610a3357506000600560008473ffffffffffffffffffffffffffffffffffffffff1673ffffffffffffffffffffffffffffffffffffffff16815260200190815260200160002054115b15610a415760019050610a46565b600090505b91905056fea165627a7a723058203a47db9034659cc0f77a81bc365965ff3b5d45d645b6c530dc134ad469a8dd1b0029",
  "source": "pragma solidity ^0.5.5;\n\ncontract Campaign {\n    address public owner;\n    uint256 public fundCall;\n    uint256 public remainingFund;\n    uint256 public timeLock;\n    address[] public contributors;\n    mapping(address => uint256) public contributions;\n    event NewCampaign(address owner, uint256 fundCall, uint256 timeLock);\n    bool public complete = false;\n\n    uint256 public minimumContribution;\n\n    constructor(\n        address _owner,\n        uint256 _fundCall,\n        uint256 _timeLock,\n        uint256 _minimumContribution\n    ) public {\n        require(_fundCall != 0 && _timeLock != 0 && _minimumContribution != 0);\n        owner = _owner;\n        fundCall = _fundCall * 1 wei;\n        timeLock = now + _timeLock * 1 seconds;\n        minimumContribution = _minimumContribution;\n        emit NewCampaign(_owner, _fundCall, _timeLock);\n    }\n\n    /*\n        Contribute to campaign\n        Contribution must be greater than 0\n        Current time must before expired time\n        Address becomes contributor of campaign \n        If total contribution greater than minimumContribution, address become approver for request receive fund when campaign is successful\n     */\n    function contribute() public payable {\n        require(msg.value > 0);\n        require(now < timeLock);\n        if (!isContributor(msg.sender)) {\n            contributors.push(msg.sender);\n        }\n        contributions[msg.sender] += msg.value;\n        if (address(this).balance >= fundCall) {\n            complete = true;\n            remainingFund = address(this).balance;\n        }\n    }\n\n    /*\n        Check address has donated and address is not locked address(0x0)\n     */\n    function isContributor(address who) internal view returns (bool) {\n        if (who != address(0x0) && contributions[who] > 0) {\n            return true;\n        }\n        return false;\n    }\n\n    /*\n        Get list address of contributors\n    */\n    function getAllContributors() public view returns (address[] memory) {\n        return contributors;\n    }\n\n    /*\n        Get current balance of campaign  \n     */\n\n    function currentBalance() public view returns (uint256) {\n        return address(this).balance;\n    }\n\n    /*\n        Refund contribution for contributor when campaign is unsuccessful\n        Current time must be less than expiry time\n        Current balance must be less than fundCall\n        Address is must be contributor and has not withdrawn \n     */\n    function refund() public {\n        require(\n            now >= timeLock && address(this).balance < fundCall,\n            \"Not eligible\"\n        );\n        require(isContributor(msg.sender), \"You have not contributed yet\");\n        msg.sender.transfer(contributions[msg.sender]);\n        contributions[msg.sender] = 0;\n    }\n\n    /*\n        Create request to withdraw money\n        Only owner of campaign can create request to withraw money\n     */\n    function withdraw() public _onlyOnwner _enoughFund {\n        // Request fundCall\n        msg.sender.transfer(remainingFund);\n    }\n\n    modifier _onlyOnwner() {\n        require(msg.sender == owner, \"Only owner can do\");\n        _;\n    }\n\n    modifier _campaignExpired() {\n        require(now >= timeLock, \"Must enough time\");\n        _;\n    }\n\n    modifier _enoughFund() {\n        require(complete, \"Must enough fundCall\");\n        _;\n    }\n}\n",
  "sourcePath": "/Users/chientm/Workspace/blockchain/Harmony/danh/contracts/Campaign.sol",
  "compiler": {
    "name": "solc",
    "version": "0.5.5+commit.47a71e8f.Emscripten.clang"
  },
  "schemaVersion": "3.2.5",
  "updatedAt": "2020-09-26T23:04:54.208Z",
  "devdoc": {
    "methods": {}
  },
  "userdoc": {
    "methods": {}
  }
}